{
  "_format": "hh-sol-artifact-1",
  "contractName": "Marketplace",
  "sourceName": "src/backend/contracts/Marketplace.sol",
  "abi": [
    {
      "inputs": [
        {
          "internalType": "uint256",
          "name": "_feePercentage",
          "type": "uint256"
        }
      ],
      "stateMutability": "nonpayable",
      "type": "constructor"
    },
    {
      "anonymous": false,
      "inputs": [
        {
          "indexed": false,
          "internalType": "uint256",
          "name": "itemId",
          "type": "uint256"
        },
        {
          "indexed": true,
          "internalType": "address",
          "name": "nft",
          "type": "address"
        },
        {
          "indexed": false,
          "internalType": "uint256",
          "name": "tokenID",
          "type": "uint256"
        },
        {
          "indexed": false,
          "internalType": "uint256",
          "name": "price",
          "type": "uint256"
        },
        {
          "indexed": true,
          "internalType": "address",
          "name": "seller",
          "type": "address"
        }
      ],
      "name": "ItemListed",
      "type": "event"
    },
    {
      "anonymous": false,
      "inputs": [
        {
          "indexed": false,
          "internalType": "uint256",
          "name": "itemId",
          "type": "uint256"
        },
        {
          "indexed": true,
          "internalType": "address",
          "name": "nft",
          "type": "address"
        },
        {
          "indexed": false,
          "internalType": "uint256",
          "name": "tokenID",
          "type": "uint256"
        },
        {
          "indexed": false,
          "internalType": "uint256",
          "name": "soldPrice",
          "type": "uint256"
        },
        {
          "indexed": true,
          "internalType": "address",
          "name": "seller",
          "type": "address"
        },
        {
          "indexed": true,
          "internalType": "address",
          "name": "buyer",
          "type": "address"
        }
      ],
      "name": "ItemSold",
      "type": "event"
    },
    {
      "inputs": [
        {
          "internalType": "contract IERC721",
          "name": "_nft",
          "type": "address"
        },
        {
          "internalType": "uint256",
          "name": "_tokenId",
          "type": "uint256"
        },
        {
          "internalType": "uint256",
          "name": "_price",
          "type": "uint256"
        }
      ],
      "name": "Listitems",
      "outputs": [],
      "stateMutability": "nonpayable",
      "type": "function"
    },
    {
      "inputs": [
        {
          "internalType": "uint256",
          "name": "_itemId",
          "type": "uint256"
        }
      ],
      "name": "PurchaseItems",
      "outputs": [],
      "stateMutability": "payable",
      "type": "function"
    },
    {
      "inputs": [],
      "name": "feeAccount",
      "outputs": [
        {
          "internalType": "address payable",
          "name": "",
          "type": "address"
        }
      ],
      "stateMutability": "view",
      "type": "function"
    },
    {
      "inputs": [],
      "name": "feePercentage",
      "outputs": [
        {
          "internalType": "uint256",
          "name": "",
          "type": "uint256"
        }
      ],
      "stateMutability": "view",
      "type": "function"
    },
    {
      "inputs": [],
      "name": "getContractBalance",
      "outputs": [
        {
          "internalType": "uint256",
          "name": "",
          "type": "uint256"
        }
      ],
      "stateMutability": "view",
      "type": "function"
    },
    {
      "inputs": [],
      "name": "getItemCount",
      "outputs": [
        {
          "internalType": "uint256",
          "name": "",
          "type": "uint256"
        }
      ],
      "stateMutability": "view",
      "type": "function"
    },
    {
      "inputs": [
        {
          "internalType": "uint256",
          "name": "_itemId",
          "type": "uint256"
        }
      ],
      "name": "getprice",
      "outputs": [
        {
          "internalType": "uint256",
          "name": "",
          "type": "uint256"
        }
      ],
      "stateMutability": "view",
      "type": "function"
    },
    {
      "inputs": [],
      "name": "itemCount",
      "outputs": [
        {
          "internalType": "uint256",
          "name": "",
          "type": "uint256"
        }
      ],
      "stateMutability": "view",
      "type": "function"
    },
    {
      "inputs": [
        {
          "internalType": "uint256",
          "name": "",
          "type": "uint256"
        }
      ],
      "name": "items",
      "outputs": [
        {
          "internalType": "uint256",
          "name": "itemId",
          "type": "uint256"
        },
        {
          "internalType": "contract IERC721",
          "name": "nft",
          "type": "address"
        },
        {
          "internalType": "uint256",
          "name": "tokenID",
          "type": "uint256"
        },
        {
          "internalType": "uint256",
          "name": "price",
          "type": "uint256"
        },
        {
          "internalType": "address payable",
          "name": "seller",
          "type": "address"
        },
        {
          "internalType": "bool",
          "name": "sold",
          "type": "bool"
        }
      ],
      "stateMutability": "view",
      "type": "function"
    },
    {
      "stateMutability": "payable",
      "type": "receive"
    }
  ],
  "bytecode": "0x60c06040523480156200001157600080fd5b506040516200139c3803806200139c8339818101604052810190620000379190620000ba565b3373ffffffffffffffffffffffffffffffffffffffff1660808173ffffffffffffffffffffffffffffffffffffffff16815250508060a0818152505050620000ec565b600080fd5b6000819050919050565b62000094816200007f565b8114620000a057600080fd5b50565b600081519050620000b48162000089565b92915050565b600060208284031215620000d357620000d26200007a565b5b6000620000e384828501620000a3565b91505092915050565b60805160a05161127c62000120600039600081816105cf01526105f701526000818161059401526108c7015261127c6000f3fe60806040526004361061008a5760003560e01c80637749cf23116100595780637749cf2314610140578063a001ecdd1461016b578063bf77692814610196578063bfb231d2146101d3578063dff738511461021557610091565b80633566e1cc1461009657806365e17c9d146100bf5780636bfb0d01146100ea5780636f9fb98a1461011557610091565b3661009157005b600080fd5b3480156100a257600080fd5b506100bd60048036038101906100b89190610b6f565b610231565b005b3480156100cb57600080fd5b506100d4610592565b6040516100e19190610be3565b60405180910390f35b3480156100f657600080fd5b506100ff6105b6565b60405161010c9190610c0d565b60405180910390f35b34801561012157600080fd5b5061012a6105bc565b6040516101379190610c0d565b60405180910390f35b34801561014c57600080fd5b506101556105c4565b6040516101629190610c0d565b60405180910390f35b34801561017757600080fd5b506101806105cd565b60405161018d9190610c0d565b60405180910390f35b3480156101a257600080fd5b506101bd60048036038101906101b89190610c28565b6105f1565b6040516101ca9190610c0d565b60405180910390f35b3480156101df57600080fd5b506101fa60048036038101906101f59190610c28565b610654565b60405161020c96959493929190610ccf565b60405180910390f35b61022f600480360381019061022a9190610c28565b6106dd565b005b60008111610274576040517f08c379a000000000000000000000000000000000000000000000000000000000815260040161026b90610d8d565b60405180910390fd5b8273ffffffffffffffffffffffffffffffffffffffff16636352211e836040518263ffffffff1660e01b81526004016102ad9190610c0d565b602060405180830381865afa1580156102ca573d6000803e3d6000fd5b505050506040513d601f19601f820116820180604052508101906102ee9190610dd9565b73ffffffffffffffffffffffffffffffffffffffff163373ffffffffffffffffffffffffffffffffffffffff161461035b576040517f08c379a000000000000000000000000000000000000000000000000000000000815260040161035290610e52565b60405180910390fd5b60008081548092919061036d90610ea1565b91905055508273ffffffffffffffffffffffffffffffffffffffff166323b872dd3330856040518463ffffffff1660e01b81526004016103af93929190610ef8565b600060405180830381600087803b1580156103c957600080fd5b505af11580156103dd573d6000803e3d6000fd5b505050506040518060c0016040528060005481526020018473ffffffffffffffffffffffffffffffffffffffff1681526020018381526020018281526020013373ffffffffffffffffffffffffffffffffffffffff1681526020016000151581525060016000805481526020019081526020016000206000820151816000015560208201518160010160006101000a81548173ffffffffffffffffffffffffffffffffffffffff021916908373ffffffffffffffffffffffffffffffffffffffff160217905550604082015181600201556060820151816003015560808201518160040160006101000a81548173ffffffffffffffffffffffffffffffffffffffff021916908373ffffffffffffffffffffffffffffffffffffffff16021790555060a08201518160040160146101000a81548160ff0219169083151502179055509050503373ffffffffffffffffffffffffffffffffffffffff168373ffffffffffffffffffffffffffffffffffffffff167f0d29d40be62a8b3047df61f04e3926dcfe31a99aff2b04910c203f7d8c7c93b3600054858560405161058593929190610f2f565b60405180910390a3505050565b7f000000000000000000000000000000000000000000000000000000000000000081565b60005481565b600047905090565b60008054905090565b7f000000000000000000000000000000000000000000000000000000000000000081565b600060647f000000000000000000000000000000000000000000000000000000000000000060646106229190610f66565b60016000858152602001908152602001600020600301546106439190610f9a565b61064d919061100b565b9050919050565b60016020528060005260406000206000915090508060000154908060010160009054906101000a900473ffffffffffffffffffffffffffffffffffffffff16908060020154908060030154908060040160009054906101000a900473ffffffffffffffffffffffffffffffffffffffff16908060040160149054906101000a900460ff16905086565b600060016000838152602001908152602001600020905060006106ff836105f1565b905060008311801561071357506000548311155b610752576040517f08c379a000000000000000000000000000000000000000000000000000000000815260040161074990611088565b60405180910390fd5b8160040160149054906101000a900460ff16156107a4576040517f08c379a000000000000000000000000000000000000000000000000000000000815260040161079b906110f4565b60405180910390fd5b600073ffffffffffffffffffffffffffffffffffffffff163373ffffffffffffffffffffffffffffffffffffffff1603610813576040517f08c379a000000000000000000000000000000000000000000000000000000000815260040161080a90611160565b60405180910390fd5b80341015610856576040517f08c379a000000000000000000000000000000000000000000000000000000000815260040161084d906111f2565b60405180910390fd5b8160040160009054906101000a900473ffffffffffffffffffffffffffffffffffffffff1673ffffffffffffffffffffffffffffffffffffffff166108fc83600301549081150290604051600060405180830381858888f193505050501580156108c4573d6000803e3d6000fd5b507f000000000000000000000000000000000000000000000000000000000000000073ffffffffffffffffffffffffffffffffffffffff166108fc83600301548361090f9190611212565b9081150290604051600060405180830381858888f1935050505015801561093a573d6000803e3d6000fd5b5060018260040160146101000a81548160ff0219169083151502179055508160010160009054906101000a900473ffffffffffffffffffffffffffffffffffffffff1673ffffffffffffffffffffffffffffffffffffffff166323b872dd303385600201546040518463ffffffff1660e01b81526004016109bd93929190610ef8565b600060405180830381600087803b1580156109d757600080fd5b505af11580156109eb573d6000803e3d6000fd5b505050503373ffffffffffffffffffffffffffffffffffffffff168260040160009054906101000a900473ffffffffffffffffffffffffffffffffffffffff1673ffffffffffffffffffffffffffffffffffffffff168360010160009054906101000a900473ffffffffffffffffffffffffffffffffffffffff1673ffffffffffffffffffffffffffffffffffffffff167fb32862f3fcbd461518a1e17967bbddf5def6f2e8585ff76d19d614a6ca5a727d8686600201548760030154604051610ab793929190610f2f565b60405180910390a4505050565b600080fd5b600073ffffffffffffffffffffffffffffffffffffffff82169050919050565b6000610af482610ac9565b9050919050565b6000610b0682610ae9565b9050919050565b610b1681610afb565b8114610b2157600080fd5b50565b600081359050610b3381610b0d565b92915050565b6000819050919050565b610b4c81610b39565b8114610b5757600080fd5b50565b600081359050610b6981610b43565b92915050565b600080600060608486031215610b8857610b87610ac4565b5b6000610b9686828701610b24565b9350506020610ba786828701610b5a565b9250506040610bb886828701610b5a565b9150509250925092565b6000610bcd82610ac9565b9050919050565b610bdd81610bc2565b82525050565b6000602082019050610bf86000830184610bd4565b92915050565b610c0781610b39565b82525050565b6000602082019050610c226000830184610bfe565b92915050565b600060208284031215610c3e57610c3d610ac4565b5b6000610c4c84828501610b5a565b91505092915050565b6000819050919050565b6000610c7a610c75610c7084610ac9565b610c55565b610ac9565b9050919050565b6000610c8c82610c5f565b9050919050565b6000610c9e82610c81565b9050919050565b610cae81610c93565b82525050565b60008115159050919050565b610cc981610cb4565b82525050565b600060c082019050610ce46000830189610bfe565b610cf16020830188610ca5565b610cfe6040830187610bfe565b610d0b6060830186610bfe565b610d186080830185610bd4565b610d2560a0830184610cc0565b979650505050505050565b600082825260208201905092915050565b7f5072696365206d7573742062652067726561746572207468616e207a65726f00600082015250565b6000610d77601f83610d30565b9150610d8282610d41565b602082019050919050565b60006020820190508181036000830152610da681610d6a565b9050919050565b610db681610ae9565b8114610dc157600080fd5b50565b600081519050610dd381610dad565b92915050565b600060208284031215610def57610dee610ac4565b5b6000610dfd84828501610dc4565b91505092915050565b7f4f6e6c7920546f6b656e204f776e65722063616e206c697374204974656d2e00600082015250565b6000610e3c601f83610d30565b9150610e4782610e06565b602082019050919050565b60006020820190508181036000830152610e6b81610e2f565b9050919050565b7f4e487b7100000000000000000000000000000000000000000000000000000000600052601160045260246000fd5b6000610eac82610b39565b91507fffffffffffffffffffffffffffffffffffffffffffffffffffffffffffffffff8203610ede57610edd610e72565b5b600182019050919050565b610ef281610ae9565b82525050565b6000606082019050610f0d6000830186610ee9565b610f1a6020830185610ee9565b610f276040830184610bfe565b949350505050565b6000606082019050610f446000830186610bfe565b610f516020830185610bfe565b610f5e6040830184610bfe565b949350505050565b6000610f7182610b39565b9150610f7c83610b39565b9250828201905080821115610f9457610f93610e72565b5b92915050565b6000610fa582610b39565b9150610fb083610b39565b9250828202610fbe81610b39565b91508282048414831517610fd557610fd4610e72565b5b5092915050565b7f4e487b7100000000000000000000000000000000000000000000000000000000600052601260045260246000fd5b600061101682610b39565b915061102183610b39565b92508261103157611030610fdc565b5b828204905092915050565b7f4974656d496420446f6573206e6f742065786973740000000000000000000000600082015250565b6000611072601583610d30565b915061107d8261103c565b602082019050919050565b600060208201905081810360008301526110a181611065565b9050919050565b7f4974656d20616c726561647920536f6c64210000000000000000000000000000600082015250565b60006110de601283610d30565b91506110e9826110a8565b602082019050919050565b6000602082019050818103600083015261110d816110d1565b9050919050565b7f596f7520617265206e6f7420616c6c6f77656400000000000000000000000000600082015250565b600061114a601383610d30565b915061115582611114565b602082019050919050565b600060208201905081810360008301526111798161113d565b9050919050565b7f416d6f756e742073656e64206973206e6f7420656e6f75676820746f2070757260008201527f6368617365206974656d73000000000000000000000000000000000000000000602082015250565b60006111dc602b83610d30565b91506111e782611180565b604082019050919050565b6000602082019050818103600083015261120b816111cf565b9050919050565b600061121d82610b39565b915061122883610b39565b92508282039050818111156112405761123f610e72565b5b9291505056fea264697066735822122035506527cbaf4c4191efb94e5a15a0b8477b3df651b6061655179536aa5fbc6464736f6c63430008140033",
  "linkReferences": {},
  "deployedLinkReferences": {}
}